{
  "contractName": "VoterRegistration",
  "abi": [
    {
      "inputs": [],
      "payable": false,
      "stateMutability": "nonpayable",
      "type": "constructor"
    },
    {
      "constant": true,
      "inputs": [],
      "name": "count",
      "outputs": [
        {
          "internalType": "uint256",
          "name": "",
          "type": "uint256"
        }
      ],
      "payable": false,
      "stateMutability": "view",
      "type": "function"
    },
    {
      "constant": true,
      "inputs": [
        {
          "internalType": "uint256",
          "name": "",
          "type": "uint256"
        }
      ],
      "name": "voters",
      "outputs": [
        {
          "internalType": "address",
          "name": "voterAddress",
          "type": "address"
        },
        {
          "internalType": "uint256",
          "name": "user_id",
          "type": "uint256"
        },
        {
          "internalType": "string",
          "name": "first_name",
          "type": "string"
        },
        {
          "internalType": "string",
          "name": "last_name",
          "type": "string"
        },
        {
          "internalType": "string",
          "name": "ssn",
          "type": "string"
        },
        {
          "internalType": "bool",
          "name": "voted",
          "type": "bool"
        },
        {
          "internalType": "string",
          "name": "username",
          "type": "string"
        },
        {
          "internalType": "string",
          "name": "password",
          "type": "string"
        }
      ],
      "payable": false,
      "stateMutability": "view",
      "type": "function"
    },
    {
      "constant": false,
      "inputs": [
        {
          "internalType": "string",
          "name": "_first_name",
          "type": "string"
        },
        {
          "internalType": "string",
          "name": "_last_name",
          "type": "string"
        },
        {
          "internalType": "string",
          "name": "_ssn",
          "type": "string"
        },
        {
          "internalType": "string",
          "name": "_username",
          "type": "string"
        },
        {
          "internalType": "string",
          "name": "_password",
          "type": "string"
        }
      ],
      "name": "register",
      "outputs": [],
      "payable": false,
      "stateMutability": "nonpayable",
      "type": "function"
    },
    {
      "constant": false,
      "inputs": [
        {
          "internalType": "uint256",
          "name": "_user_id",
          "type": "uint256"
        }
      ],
      "name": "userVoted",
      "outputs": [],
      "payable": false,
      "stateMutability": "nonpayable",
      "type": "function"
    },
    {
      "constant": true,
      "inputs": [
        {
          "internalType": "uint256",
          "name": "_user_id",
          "type": "uint256"
        }
      ],
      "name": "getVoterInformation",
      "outputs": [
        {
          "components": [
            {
              "internalType": "address",
              "name": "voterAddress",
              "type": "address"
            },
            {
              "internalType": "uint256",
              "name": "user_id",
              "type": "uint256"
            },
            {
              "internalType": "string",
              "name": "first_name",
              "type": "string"
            },
            {
              "internalType": "string",
              "name": "last_name",
              "type": "string"
            },
            {
              "internalType": "string",
              "name": "ssn",
              "type": "string"
            },
            {
              "internalType": "bool",
              "name": "voted",
              "type": "bool"
            },
            {
              "internalType": "string",
              "name": "username",
              "type": "string"
            },
            {
              "internalType": "string",
              "name": "password",
              "type": "string"
            }
          ],
          "internalType": "struct VoterRegistration.Voter",
          "name": "",
          "type": "tuple"
        }
      ],
      "payable": false,
      "stateMutability": "view",
      "type": "function"
    },
    {
      "constant": true,
      "inputs": [
        {
          "internalType": "string",
          "name": "_username",
          "type": "string"
        },
        {
          "internalType": "string",
          "name": "_password",
          "type": "string"
        }
      ],
      "name": "login",
      "outputs": [
        {
          "internalType": "bool",
          "name": "",
          "type": "bool"
        }
      ],
      "payable": false,
      "stateMutability": "view",
      "type": "function"
    },
    {
      "constant": true,
      "inputs": [],
      "name": "getVoterList",
      "outputs": [
        {
          "components": [
            {
              "internalType": "address",
              "name": "voterAddress",
              "type": "address"
            },
            {
              "internalType": "uint256",
              "name": "user_id",
              "type": "uint256"
            },
            {
              "internalType": "string",
              "name": "first_name",
              "type": "string"
            },
            {
              "internalType": "string",
              "name": "last_name",
              "type": "string"
            },
            {
              "internalType": "string",
              "name": "ssn",
              "type": "string"
            },
            {
              "internalType": "bool",
              "name": "voted",
              "type": "bool"
            },
            {
              "internalType": "string",
              "name": "username",
              "type": "string"
            },
            {
              "internalType": "string",
              "name": "password",
              "type": "string"
            }
          ],
          "internalType": "struct VoterRegistration.Voter[]",
          "name": "",
          "type": "tuple[]"
        }
      ],
      "payable": false,
      "stateMutability": "view",
      "type": "function"
    }
  ],
  "bytecode": "0x608060405234801561001057600080fd5b50611a08806100206000396000f3fe608060405234801561001057600080fd5b506004361061007d5760003560e01c80635a09007b1161005b5780635a09007b146100ec578063b28d92ae14610108578063cd20a35314610126578063da58c7d9146101565761007d565b806306661abd14610082578063397e0eeb146100a057806358467dbc146100bc575b600080fd5b61008a61018d565b604051610097919061180e565b60405180910390f35b6100ba60048036036100b5919081019061130b565b610193565b005b6100d660048036036100d191908101906111b0565b6101ca565b6040516100e391906117d1565b60405180910390f35b6101066004803603610101919081019061121c565b6102c9565b005b61011061045c565b60405161011d91906117af565b60405180910390f35b610140600480360361013b919081019061130b565b6108a9565b60405161014d91906117ec565b60405180910390f35b610170600480360361016b919081019061130b565b610c7b565b60405161018498979695949392919061170e565b60405180910390f35b60015481565b6000806000838152602001908152602001600020905060018160050160006101000a81548160ff0219169083151502179055505050565b60008060008090505b6001548110156102be57600080600083815260200190815260200160002090508560405160200161020491906116e0565b604051602081830303815290604052805190602001208160060160405160200161022e91906116f7565b6040516020818303038152906040528051906020012014156102ab578460405160200161025b91906116e0565b604051602081830303815290604052805190602001208160070160405160200161028591906116f7565b6040516020818303038152906040528051906020012014156102a657600192505b6102b0565b600092505b5080806001019150506101d3565b508091505092915050565b6102d1610fe8565b6040518061010001604052803373ffffffffffffffffffffffffffffffffffffffff168152602001600154815260200187815260200186815260200185815260200160001515815260200184815260200183815250905080600080600154815260200190815260200160002060008201518160000160006101000a81548173ffffffffffffffffffffffffffffffffffffffff021916908373ffffffffffffffffffffffffffffffffffffffff1602179055506020820151816001015560408201518160020190805190602001906103aa929190611045565b5060608201518160030190805190602001906103c7929190611045565b5060808201518160040190805190602001906103e4929190611045565b5060a08201518160050160006101000a81548160ff02191690831515021790555060c0820151816006019080519060200190610421929190611045565b5060e082015181600701908051906020019061043e929190611045565b50905050600160008154809291906001019190505550505050505050565b60608060015460405190808252806020026020018201604052801561049b57816020015b6104886110c5565b8152602001906001900390816104805790505b50905060008090505b6001548110156108a1576104b6610fe8565b600080838152602001908152602001600020604051806101000160405290816000820160009054906101000a900473ffffffffffffffffffffffffffffffffffffffff1673ffffffffffffffffffffffffffffffffffffffff1673ffffffffffffffffffffffffffffffffffffffff16815260200160018201548152602001600282018054600181600116156101000203166002900480601f0160208091040260200160405190810160405280929190818152602001828054600181600116156101000203166002900480156105cd5780601f106105a2576101008083540402835291602001916105cd565b820191906000526020600020905b8154815290600101906020018083116105b057829003601f168201915b50505050508152602001600382018054600181600116156101000203166002900480601f01602080910402602001604051908101604052809291908181526020018280546001816001161561010002031660029004801561066f5780601f106106445761010080835404028352916020019161066f565b820191906000526020600020905b81548152906001019060200180831161065257829003601f168201915b50505050508152602001600482018054600181600116156101000203166002900480601f0160208091040260200160405190810160405280929190818152602001828054600181600116156101000203166002900480156107115780601f106106e657610100808354040283529160200191610711565b820191906000526020600020905b8154815290600101906020018083116106f457829003601f168201915b505050505081526020016005820160009054906101000a900460ff16151515158152602001600682018054600181600116156101000203166002900480601f0160208091040260200160405190810160405280929190818152602001828054600181600116156101000203166002900480156107ce5780601f106107a3576101008083540402835291602001916107ce565b820191906000526020600020905b8154815290600101906020018083116107b157829003601f168201915b50505050508152602001600782018054600181600116156101000203166002900480601f0160208091040260200160405190810160405280929190818152602001828054600181600116156101000203166002900480156108705780601f1061084557610100808354040283529160200191610870565b820191906000526020600020905b81548152906001019060200180831161085357829003601f168201915b50505050508152505090508083838151811061088857fe5b60200260200101819052505080806001019150506104a4565b508091505090565b6108b1610fe8565b600080838152602001908152602001600020604051806101000160405290816000820160009054906101000a900473ffffffffffffffffffffffffffffffffffffffff1673ffffffffffffffffffffffffffffffffffffffff1673ffffffffffffffffffffffffffffffffffffffff16815260200160018201548152602001600282018054600181600116156101000203166002900480601f0160208091040260200160405190810160405280929190818152602001828054600181600116156101000203166002900480156109c85780601f1061099d576101008083540402835291602001916109c8565b820191906000526020600020905b8154815290600101906020018083116109ab57829003601f168201915b50505050508152602001600382018054600181600116156101000203166002900480601f016020809104026020016040519081016040528092919081815260200182805460018160011615610100020316600290048015610a6a5780601f10610a3f57610100808354040283529160200191610a6a565b820191906000526020600020905b815481529060010190602001808311610a4d57829003601f168201915b50505050508152602001600482018054600181600116156101000203166002900480601f016020809104026020016040519081016040528092919081815260200182805460018160011615610100020316600290048015610b0c5780601f10610ae157610100808354040283529160200191610b0c565b820191906000526020600020905b815481529060010190602001808311610aef57829003601f168201915b505050505081526020016005820160009054906101000a900460ff16151515158152602001600682018054600181600116156101000203166002900480601f016020809104026020016040519081016040528092919081815260200182805460018160011615610100020316600290048015610bc95780601f10610b9e57610100808354040283529160200191610bc9565b820191906000526020600020905b815481529060010190602001808311610bac57829003601f168201915b50505050508152602001600782018054600181600116156101000203166002900480601f016020809104026020016040519081016040528092919081815260200182805460018160011615610100020316600290048015610c6b5780601f10610c4057610100808354040283529160200191610c6b565b820191906000526020600020905b815481529060010190602001808311610c4e57829003601f168201915b5050505050815250509050919050565b60006020528060005260406000206000915090508060000160009054906101000a900473ffffffffffffffffffffffffffffffffffffffff1690806001015490806002018054600181600116156101000203166002900480601f016020809104026020016040519081016040528092919081815260200182805460018160011615610100020316600290048015610d535780601f10610d2857610100808354040283529160200191610d53565b820191906000526020600020905b815481529060010190602001808311610d3657829003601f168201915b505050505090806003018054600181600116156101000203166002900480601f016020809104026020016040519081016040528092919081815260200182805460018160011615610100020316600290048015610df15780601f10610dc657610100808354040283529160200191610df1565b820191906000526020600020905b815481529060010190602001808311610dd457829003601f168201915b505050505090806004018054600181600116156101000203166002900480601f016020809104026020016040519081016040528092919081815260200182805460018160011615610100020316600290048015610e8f5780601f10610e6457610100808354040283529160200191610e8f565b820191906000526020600020905b815481529060010190602001808311610e7257829003601f168201915b5050505050908060050160009054906101000a900460ff1690806006018054600181600116156101000203166002900480601f016020809104026020016040519081016040528092919081815260200182805460018160011615610100020316600290048015610f405780601f10610f1557610100808354040283529160200191610f40565b820191906000526020600020905b815481529060010190602001808311610f2357829003601f168201915b505050505090806007018054600181600116156101000203166002900480601f016020809104026020016040519081016040528092919081815260200182805460018160011615610100020316600290048015610fde5780601f10610fb357610100808354040283529160200191610fde565b820191906000526020600020905b815481529060010190602001808311610fc157829003601f168201915b5050505050905088565b604051806101000160405280600073ffffffffffffffffffffffffffffffffffffffff1681526020016000815260200160608152602001606081526020016060815260200160001515815260200160608152602001606081525090565b828054600181600116156101000203166002900490600052602060002090601f016020900481019282601f1061108657805160ff19168380011785556110b4565b828001600101855582156110b4579182015b828111156110b3578251825591602001919060010190611098565b5b5090506110c19190611122565b5090565b604051806101000160405280600073ffffffffffffffffffffffffffffffffffffffff1681526020016000815260200160608152602001606081526020016060815260200160001515815260200160608152602001606081525090565b61114491905b80821115611140576000816000905550600101611128565b5090565b90565b600082601f83011261115857600080fd5b813561116b61116682611856565b611829565b9150808252602083016020830185838301111561118757600080fd5b61119283828461195b565b50505092915050565b6000813590506111aa816119ae565b92915050565b600080604083850312156111c357600080fd5b600083013567ffffffffffffffff8111156111dd57600080fd5b6111e985828601611147565b925050602083013567ffffffffffffffff81111561120657600080fd5b61121285828601611147565b9150509250929050565b600080600080600060a0868803121561123457600080fd5b600086013567ffffffffffffffff81111561124e57600080fd5b61125a88828901611147565b955050602086013567ffffffffffffffff81111561127757600080fd5b61128388828901611147565b945050604086013567ffffffffffffffff8111156112a057600080fd5b6112ac88828901611147565b935050606086013567ffffffffffffffff8111156112c957600080fd5b6112d588828901611147565b925050608086013567ffffffffffffffff8111156112f257600080fd5b6112fe88828901611147565b9150509295509295909350565b60006020828403121561131d57600080fd5b600061132b8482850161119b565b91505092915050565b600061134083836115f6565b905092915050565b61135181611913565b82525050565b61136081611913565b82525050565b6000611371826118a7565b61137b81856118d5565b93508360208202850161138d85611882565b8060005b858110156113c957848403895281516113aa8582611334565b94506113b5836118c8565b925060208a01995050600181019050611391565b50829750879550505050505092915050565b6113e481611925565b82525050565b6113f381611925565b82525050565b6000611404826118bd565b61140e8185611908565b935061141e81856020860161196a565b80840191505092915050565b6000611435826118b2565b61143f81856118e6565b935061144f81856020860161196a565b6114588161199d565b840191505092915050565b600061146e826118b2565b61147881856118f7565b935061148881856020860161196a565b6114918161199d565b840191505092915050565b6000815460018116600081146114b957600181146114de57611522565b607f60028304166114ca8187611908565b955060ff1983168652808601935050611522565b600282046114ec8187611908565b95506114f785611892565b60005b82811015611519578154818901526001820191506020810190506114fa565b82880195505050505b505092915050565b6000610100830160008301516115436000860182611348565b50602083015161155660208601826116c2565b506040830151848203604086015261156e828261142a565b91505060608301518482036060860152611588828261142a565b915050608083015184820360808601526115a2828261142a565b91505060a08301516115b760a08601826113db565b5060c083015184820360c08601526115cf828261142a565b91505060e083015184820360e08601526115e9828261142a565b9150508091505092915050565b60006101008301600083015161160f6000860182611348565b50602083015161162260208601826116c2565b506040830151848203604086015261163a828261142a565b91505060608301518482036060860152611654828261142a565b9150506080830151848203608086015261166e828261142a565b91505060a083015161168360a08601826113db565b5060c083015184820360c086015261169b828261142a565b91505060e083015184820360e08601526116b5828261142a565b9150508091505092915050565b6116cb81611951565b82525050565b6116da81611951565b82525050565b60006116ec82846113f9565b915081905092915050565b6000611703828461149c565b915081905092915050565b600061010082019050611724600083018b611357565b611731602083018a6116d1565b81810360408301526117438189611463565b905081810360608301526117578188611463565b9050818103608083015261176b8187611463565b905061177a60a08301866113ea565b81810360c083015261178c8185611463565b905081810360e08301526117a08184611463565b90509998505050505050505050565b600060208201905081810360008301526117c98184611366565b905092915050565b60006020820190506117e660008301846113ea565b92915050565b60006020820190508181036000830152611806818461152a565b905092915050565b600060208201905061182360008301846116d1565b92915050565b6000604051905081810181811067ffffffffffffffff8211171561184c57600080fd5b8060405250919050565b600067ffffffffffffffff82111561186d57600080fd5b601f19601f8301169050602081019050919050565b6000819050602082019050919050565b60008190508160005260206000209050919050565b600081519050919050565b600081519050919050565b600081519050919050565b6000602082019050919050565b600082825260208201905092915050565b600082825260208201905092915050565b600082825260208201905092915050565b600081905092915050565b600061191e82611931565b9050919050565b60008115159050919050565b600073ffffffffffffffffffffffffffffffffffffffff82169050919050565b6000819050919050565b82818337600083830152505050565b60005b8381101561198857808201518184015260208101905061196d565b83811115611997576000848401525b50505050565b6000601f19601f8301169050919050565b6119b781611951565b81146119c257600080fd5b5056fea365627a7a7231582014ef97704ac0c1358e1acedcc78eb51083ce39043725d16ee732ff45e7dec83b6c6578706572696d656e74616cf564736f6c63430005100040",
  "source": "pragma solidity ^0.5.0;\r\npragma experimental ABIEncoderV2;\r\n\r\n\r\ncontract VoterRegistration {\r\n    struct Voter {\r\n        address voterAddress;\r\n        uint user_id;\r\n        string first_name;\r\n        string last_name;\r\n        string ssn;\r\n        bool voted;\r\n        string username;\r\n        string password;\r\n    }\r\n    \r\n    // Store Candidates\r\n    // Fetch Candidate\r\n    mapping(uint  => Voter) public voters;\r\n    // Store Candidates Count\r\n    uint public count;\r\n    \r\n    constructor() public {\r\n        \r\n    }\r\n    \r\n    function register(string memory _first_name,string memory _last_name,string memory _ssn,string memory _username,string memory _password) public{\r\n        Voter memory voter = Voter(msg.sender,count,_first_name,_last_name,_ssn,false,_username,_password);\r\n        voters[count] = voter;\r\n        count++;\r\n    }\r\n    \r\n    function userVoted(uint  _user_id) public {\r\n        Voter storage voter = voters[_user_id];\r\n        voter.voted = true;\r\n    }\r\n    \r\n    function getVoterInformation(uint _user_id) public view returns (Voter memory) {\r\n        return voters[_user_id];\r\n    }\r\n    \r\n    \r\n    function login(string memory _username,string memory _password) public view returns (bool){\r\n        bool isValidVoter;\r\n        for(uint i =0; i < count; i++){\r\n            Voter storage voter = voters[i];\r\n            \r\n            if (keccak256(abi.encodePacked(voter.username)) == keccak256(abi.encodePacked(_username))) {\r\n                if (keccak256(abi.encodePacked(voter.password)) == keccak256(abi.encodePacked(_password))) {\r\n                    isValidVoter = true;\r\n                }\r\n            }\r\n            else {\r\n                isValidVoter = false;\r\n            }\r\n        }\r\n        return isValidVoter;\r\n    }\r\n\r\n     function getVoterList() public view returns (Voter [] memory){\r\n        Voter [] memory voterList = new Voter[](count);\r\n        \r\n        for(uint i =0; i < count; i++){\r\n           Voter memory voter = voters[i];\r\n           voterList[i] = voter;\r\n        }\r\n        return voterList;\r\n    }\r\n    \r\n    \r\n}",
  "sourcePath": "E:\\final_voting_app\\contracts\\VoterRegistration.sol",
  "compiler": {
    "name": "solc",
    "version": "0.5.16+commit.9c3226ce.Emscripten.clang"
  },
  "schemaVersion": "3.0.23",
  "updatedAt": "2020-03-07T06:01:40.995Z",
  "networkType": "ethereum",
  "devdoc": {
    "methods": {}
  },
  "userdoc": {
    "methods": {}
  }
}